:1000000071C000008EC000008CC0000001C3000061
:1000100088C000000CC3000084C0000082C0000043
:1000200080C000007EC000007CC000007AC00000DC
:1000300078C0000076C0000074C0000072C00000EC
:1000400070C000006EC000006CC000006AC00000FC
:1000500068C0000066C0000064C0000062C000000C
:1000600060C000005EC000005CC000005AC000001C
:1000700058C00000F7C2000054C0000052C0000089
:1000800050C000004EC000004CC000004AC000003C
:1000900048C0000046C0000044C0000042C000004C
:1000A00040C000003EC000003CC000003AC000005C
:1000B00038C0000036C0000034C0000032C000006C
:1000C00030C000002EC000002CC000002AC000007C
:1000D00028C0000026C0000024C0000022C000008C
:1000E00020C0000011241FBECFEFD1E2DEBFCDBF84
:1000F00000E00CBF12E0A0E0B2E0EAEFF6E000E0C2
:100100000BBF02C007900D92A431B107D9F722E0CE
:10011000A4E1B2E001C01D92AE31B207E1F7E1D136
:10012000EAC2B8C287B1807F87B988B1806288B9D6
:1001300088B18F7B88B982E08A95F1F700C088B1D9
:10014000806888B992E09A95F1F700C086B18295EF
:10015000807F92E09A95F1F700C098B19F7798B9A7
:1001600095E09A95F1F7000098B1906898B992E0FF
:100170009A95F1F700C096B1807892E09A95F1F7E0
:1001800000C098B19F7798B995E09A95F1F7000073
:100190008111D5CF88B18F7D88B987B18F6087B93C
:1001A0000895282F22952F708F70611104C098B187
:1001B0009F7B98B903C098B1906498B992E09A95E2
:1001C000F1F700C098B1906898B998B1907F922BE0
:1001D00098B995E09A95F1F7000098B19F7798B992
:1001E00095E09A95F1F7000098B1906898B998B1A8
:1001F000907F892B88B985E08A95F1F7000088B156
:100200008F7788B995E09A95F1F700008BCF089524
:10021000CF93C82F2FEF86E791E021508040904088
:10022000E1F700C0000087B18F6087B987B18068AF
:1002300087B987B1806487B987B1806287B988B18F
:10024000807F88B988B18F7788B988B18F7D88B968
:1002500088B18F7B88B900C000C0000088B1806879
:1002600088B988B1826088B925E02A95F1F7000045
:1002700088B18F7788B985E08A95F1F7000052DF61
:1002800060E08C2F8C608DDF60E088E28ADFCF91A8
:100290000895CF93DF93EC0103C061E082DF2196E4
:1002A00088818111FACFDF91CF910895EF92FF926B
:1002B0000F931F93CF93DF9300D01F921F92CDB760
:1002C000DEB77B01FE01319625E0DF011D922A9504
:1002D000E9F724E030E00EC06AE070E0E5D1E1E04B
:1002E000F0E0EC0FFD1FE20FF31F8083862F972FA6
:1002F00021503109009781F7BFEFEB16FB0681F41F
:1003000003C00F5F1F4F02C000E010E0E1E0F0E02B
:10031000EC0FFD1FE00FF11F2081222391F304C099
:1003200005E010E00E191F09992384F461E08DE2C5
:1003300038DF0CC0E1E0F0E0EC0FFD1FE00FF11F33
:10034000808161E0805D2DDF0F5F1F4F053011055B
:100350008CF30F900F900F900F900F90DF91CF9133
:100360001F910F91FF90EF900895883228F461114A
:10037000806460E0806815CF089587E085B90895AE
:1003800084B5816084BD84B5826084BD84B5806895
:1003900084BD80E587BD0895E1E8F0E02081286014
:1003A000208328EE33E03093890020938800109258
:1003B00085001092840026B3226026BB20E030E046
:1003C00007C0B19B05C046B3426046BB2F5F3F4F9D
:1003D00028173907B4F308950F931F93CF93DF9332
:1003E0008C0180911A0290911B02019690931B023E
:1003F00080931A02C0E0D0E045C080911A0290912B
:100400001B02059731F481E090E090931B028093EA
:100410001A0280911A0290911B028230910569F0B4
:100420001CF4019739F012C08330910549F004970C
:1004300051F00CC080E382B90AC086E082B907C0DF
:1004400088E282B904C085E082B901C012B8C8014F
:100450000197C817D9074CF480911A0290911B029A
:10046000019690931B0280931A028091150290913D
:1004700016020196909316028093150284E190E093
:100480008BDF2196C017D1070CF4B7CFDF91CF9146
:100490001F910F91089580E092E0FBDE85E588B919
:1004A00088EE93E079DF10921B0210921A0203C0CB
:1004B00081E090E091DF0799FBCF8FEF88B988EE5C
:1004C00093E06ADF10921B0210921A021092160239
:1004D0001092150208958FE085B98AE090E05CCF14
:1004E0000895CF93DF93E1E6F0E080E8808381E038
:1004F0008083E1E8F0E080818260808385B582605E
:1005000085BD83E085DE60E081E04BDE109219025C
:10051000F8948DB384608DBB8DB380618DBBE9E6AB
:10052000F0E0808180628083808183608083EAE75D
:10053000F0E0808180688083808188608083ECE740
:10054000F0E080818066808380EF8AB98FEF87B981
:1005500018B884B915B88FE381B912B89CDF10DFE1
:10056000789487E085B988B1806F88B98091190245
:100570008330B9F128F4813049F08230D9F0F3CFDB
:100580008430A1F1853009F43CC0EDCF81E088B919
:1005900010921902E8CFEAE7F0E08081806480835E
:1005A0008091140290E0C817D90734F4C091140266
:1005B000D0E002C0C0E0D0E04899EDCF84EF91E0F8
:1005C000EBDE89DF61E080E0D0DE63E070E0CE0149
:1005D0006DDE80ED97E0E0DE84E088B910921902CC
:1005E000C2CF88E088B910921902BDCF88E088B9DF
:1005F00072DF809119028430E1F3BFDE109219029C
:10060000B2CF80EF88B980E090E0DF91CF9108957C
:100610001F920F920FB60F9211248F9382E0809356
:1006200019028F910F900FBE0F901F9018951F9277
:100630000F920FB60F9211248F93649BFECF80917F
:100640001902811103C084E080931902809119027C
:10065000843011F4109219028F910F900FBE0F90F9
:100660001F9018951F920F920FB60F9211248F931F
:100670009F93809179008093140281E090E09093A1
:100680001802809317029F918F910F900FBE0F90C9
:100690001F9018951F920F920FB60F9211240F9072
:1006A0000FBE0F901F90189597FB072E16F400941D
:1006B00006D077FD08D00BD007FC05D03EF490950E
:1006C00081959F4F0895709561957F4F0895AA1B5E
:1006D000BB1B51E107C0AA1FBB1FA617B70710F02D
:1006E000A61BB70B881F991F5A95A9F7809590955F
:0A06F000BC01CD010895F894FFCF7E
:1006FA00486F6D696E6720737465707065722E2E0F
:04070A002E2000009D
:00000001FF
