:1000000071C00000F2C300008CC0000002C40000F8
:1000100027C4000043C5000084C0000082C0000067
:1000200080C000007EC000007CC000007AC00000DC
:1000300078C0000076C0000074C0000072C00000EC
:1000400070C000006EC000006CC000006AC00000FC
:1000500068C0000066C0000064C0000062C000000C
:1000600060C000005EC000005CC000005AC000001C
:1000700058C000004DC5000054C0000052C0000030
:1000800050C000004EC000004CC000004AC000003C
:1000900048C0000046C0000044C0000042C000004C
:1000A00040C000003EC000003CC000003AC000005C
:1000B00038C0000036C0000034C0000032C000006C
:1000C00030C000002EC000002CC000002AC000007C
:1000D00028C0000026C0000024C0000022C000008C
:1000E00020C0000011241FBECFEFD1E2DEBFCDBF84
:1000F00000E00CBF12E0A0E0B2E0E8E9FEE000E0C2
:100100000BBF02C007900D92A034B107D9F722E0CF
:10011000A0E4B2E001C01D92AC35B207E1F77DD298
:10012000B9C641C587B1807F87B988B1806288B977
:1001300088B18F7B88B982E08A95F1F700C088B1D9
:10014000806888B992E09A95F1F700C086B18295EF
:10015000807F92E09A95F1F700C098B19F7798B9A7
:1001600095E09A95F1F7000098B1906898B992E0FF
:100170009A95F1F700C096B1807892E09A95F1F7E0
:1001800000C098B19F7798B995E09A95F1F7000073
:100190008111D5CF88B18F7D88B987B18F6087B93C
:1001A0000895282F22952F708F70611104C098B187
:1001B0009F7B98B903C098B1906498B992E09A95E2
:1001C000F1F700C098B1906898B998B1907F922BE0
:1001D00098B995E09A95F1F7000098B19F7798B992
:1001E00095E09A95F1F7000098B1906898B998B1A8
:1001F000907F892B88B985E08A95F1F7000088B156
:100200008F7788B995E09A95F1F700008BCF089524
:10021000CF93C82F2FEF86E791E021508040904088
:10022000E1F700C0000087B18F6087B987B18068AF
:1002300087B987B1806487B987B1806287B988B18F
:10024000807F88B988B18F7788B988B18F7D88B968
:1002500088B18F7B88B900C000C0000088B1806879
:1002600088B988B1826088B925E02A95F1F7000045
:1002700088B18F7788B985E08A95F1F7000052DF61
:1002800060E08C2F8C608DDF60E088E28ADFCF91A8
:100290000895CF93DF93EC0103C061E082DF2196E4
:1002A00088818111FACFDF91CF910895EF92FF926B
:1002B0000F931F93CF93DF9300D01F921F92CDB760
:1002C000DEB77B01FE01319625E0DF011D922A9504
:1002D000E9F724E030E00EC06AE070E093D4E1E09A
:1002E000F0E0EC0FFD1FE20FF31F8083862F972FA6
:1002F00021503109009781F7BFEFEB16FB0681F41F
:1003000003C00F5F1F4F02C000E010E0E1E0F0E02B
:10031000EC0FFD1FE00FF11F2081222391F304C099
:1003200005E010E00E191F09992384F461E08DE2C5
:1003300038DF0CC0E1E0F0E0EC0FFD1FE00FF11F33
:10034000808161E0805D2DDF0F5F1F4F053011055B
:100350008CF30F900F900F900F900F90DF91CF9133
:100360001F910F91FF90EF900895883228F461114A
:10037000806460E0806815CF089587E085B90895AE
:1003800084B5816084BD84B5826084BD84B5806895
:1003900084BD80E887BD0895E1E8F0E02081286011
:1003A000208328EE33E03093890020938800109258
:1003B00085001092840026B3226026BB20E030E046
:1003C00007C0B19B05C046B3426046BB2F5F3F4F9D
:1003D00028173907B4F308950F931F93CF93DF9332
:1003E0008C0180914A0290914B02019690934B02AE
:1003F00080934A02C0E0D0E045C080914A029091CB
:100400004B02059731F481E090E090934B0280938A
:100410004A0280914A0290914B028230910569F024
:100420001CF4019739F012C08330910549F004970C
:1004300051F00CC080E382B90AC086E082B907C0DF
:1004400088E282B904C085E082B901C012B8C8014F
:100450000197C817D9074CF480914A0290914B023A
:10046000019690934B0280934A02809142029091B0
:1004700043020196909343028093420284E190E00C
:100480008BDF2196C017D1070CF4B7CFDF91CF9146
:100490001F910F91089510924B0210924A0260E052
:1004A00081E07FDE86E092E0F4DE03C081E090E050
:1004B00093DF0799FBCF10924B0210924A021092E1
:1004C00043021092420208950F931F93CF93DF933C
:1004D0008C0180914A0290914B02019790934B02BC
:1004E00080934A02C0E0D0E045C080914A029091DA
:1004F0004B02892B31F484E090E090934B0280937F
:100500004A0280914202909143028230910569F043
:100510001CF4019739F012C08330910549F004971B
:1005200051F00CC080E382B90AC086E082B907C0EE
:1005300088E282B904C085E082B901C012B8C8015E
:100540000197C817D9074CF480914A0290914B0249
:10055000019790934B0280934A02809142029091BE
:1005600043020197909343028093420284E190E01A
:1005700013DF2196C017D1070CF4B7CFDF91CF91CD
:100580001F910F9108958FE085B98AE090E004DF14
:1005900015B80895FC0111821082FB0111821082AE
:1005A000FA01118210820895CF93DF93EC0186E067
:1005B00090E04FD3FC0199838883158214828FEFDA
:1005C0009FEF9383828391838083DF91CF910895FE
:1005D000CF93DF93F901EA01A881B981109759F00F
:1005E0008081918115969C938E931497808191813F
:1005F000998388830FC020813181DC012D933C9346
:1006000080819181EB019983888380819181FA01B6
:1006100091838083DF91CF9108951F93CF93DF93D0
:10062000CDB7DEB728970FB6F894DEBF0FBECDBFAB
:10063000E1E6F0E080E8808381E08083E1E8F0E0BB
:1006400080818260808385B5826085BD83E0E0DD46
:1006500060E081E0A6DD8FE092E01BDE1FEF17B9BE
:1006600018B8F8948DB381608DBB8DB384608DBB59
:100670008DB388608DBB8DB380618DBBE9E6F0E002
:1006800080818260808380818063808380818068B4
:100690008083EAE6F0E0808183608083EAE7F0E02F
:1006A000808180688083808188608083ECE7F0E0CF
:1006B00080818064808380818160808310924D027C
:1006C00010924C0210925702109256021092490258
:1006D000109248021092510210925002AE014B5FEC
:1006E0005F4FBE016D5F7F4FCE01019653DF1886CD
:1006F0001F8280EF8AB98FE381B912B8CCDE60E047
:1007000081E04FDD8FE092E0C4DD14B915B838DE2A
:1007100087E085B978941092470210924602809142
:100720004602909147028330910589F134F481307B
:10073000910551F0029721F1F2CF8430910571F1CA
:10074000059709F444C0EBCFCE0107962DDF9E013B
:10075000295F3F4FAE014B5F5F4FBE016D5F7F4F23
:10076000CE01019635DFED81FE8181E090E091833D
:10077000808382E088B91092470210924602CFCF60
:1007800084E088B91092470210924602C8CF88E0F0
:1007900088B91092470210924602C1CF60E080E013
:1007A000E4DD86E192E075DDEEDE80914602909117
:1007B00047020497D1F3E1DD1092470210924602FE
:1007C00060E080E0D2DD8FE092E063DDA8CF80EFD3
:1007D00088B980E090E028960FB6F894DEBF0FBE8F
:1007E000CDBFDF91CF911F9108951F920F920FB649
:1007F0000F9211248F939F9381E090E09093470292
:10080000809346029F918F910F900FBE0F901F9083
:1008100018951F920F920FB60F9211240BB60F92DC
:100820008F939F93EF93FF9382E090E09093470222
:100830008093460280E094E09093410280934002CE
:10084000EAE7F0E0808180648083FF91EF919F91DF
:100850008F910F900BBE0F900FBE0F901F901895A9
:100860001F920F920FB60F9211240BB60F922F9377
:100870003F934F935F936F937F938F939F93AF9328
:10088000BF93EF93FF9383E090E0909347028093B0
:100890004602109255021092540210924502109294
:1008A00044021092530210925202809140029091A1
:1008B00041029093450280934402809144029091BA
:1008C000450280914402909145028F3F910509F0C5
:1008D000A0F4109255021092540280914C02909113
:1008E0004D02019690934D0280934C0260E081E0AE
:1008F00058DC8DE192E0CDDC6BC080914402909198
:10090000450280399140E8F080914402909145027F
:100910008D3B9240B0F482E390E090935502809337
:10092000540280915602909157020196909357027B
:100930008093560260E081E034DC86E292E0A9DC3C
:1009400047C0809144029091450286369340E8F07A
:100950008091440290914502883A9340B0F484E635
:1009600090E09093550280935402809148029091B8
:1009700049020196909349028093480260E081E029
:1009800010DC8CE292E085DC23C0809144029091DF
:100990004502883A9340E0F08091440290914502EC
:1009A000853D9340A8F486E990E0909355028093AA
:1009B00054028091500290915102019690935102FD
:1009C0008093500260E081E0ECDB82E392E061DC46
:1009D000809142029091430268EC70E013D1209123
:1009E0005402309155028217930709F443C0CBDDBE
:1009F000209154023091550280914202909143021D
:100A000068EC70E0FFD0281B390B30935302209321
:100A100052028091520290915302C29639F0809115
:100A20005202909153028639910521F482E390E0BD
:100A3000D3DC20C08091520290915302C29739F0CA
:100A400080915202909153028A369F4F21F482E3A3
:100A500090E03ADD0FC080915202909153029923A9
:100A60001CF49195819591098436910519F484E6D9
:100A700090E0B2DC82DCFF91EF91BF91AF919F914A
:100A80008F917F916F915F914F913F912F910F9037
:100A90000BBE0F900FBE0F901F9018951F920F92D4
:100AA0000FB60F9211240BB60F922F933F934F93D3
:100AB0005F936F937F938F939F93AF93BF93EF93C6
:100AC000FF9384E190E068DC8091460290914702B8
:100AD000049729F4109247021092460206C084E05F
:100AE00090E09093470280934602FF91EF91BF916F
:100AF000AF919F918F917F916F915F914F913F91B6
:100B00002F910F900BBE0F900FBE0F901F90189556
:100B10001F920F920FB60F9211240BB60F922F93C4
:100B20003F934F935F936F937F938F939F93AF9375
:100B3000BF93EF93FF9320917800309179008091DB
:100B40004002909141022817390740F480917800C3
:100B50009091790090934102809340024A9B06C095
:100B6000EAE7F0E08081806480830AC061E080E091
:100B7000FCDB809140029091410264E070E096DBE2
:100B8000FF91EF91BF91AF919F918F917F916F9165
:100B90005F914F913F912F910F900BBE0F900FBE21
:100BA0000F901F9018951F920F920FB60F9211245D
:100BB0000BB60F922F933F934F935F936F937F9357
:100BC0008F939F93AF93BF93EF93FF9360E081E088
:100BD000E8DA88E392E05DDB80ED97E0DDDBFF9112
:100BE000EF91BF91AF919F918F917F916F915F91A5
:100BF0004F913F912F910F900BBE0F900FBE0F9012
:100C00001F90189597FB072E16F4009406D077FDD9
:100C100008D00BD007FC05D03EF4909581959F4FEE
:100C20000895709561957F4F0895AA1BBB1B51E1F4
:100C300007C0AA1FBB1FA617B70710F0A61BB70B4C
:100C4000881F991F5A95A9F780959095BC01CD01F1
:100C500008950F931F93CF93DF938230910510F483
:100C600082E090E0E0915A02F0915B0220E030E0F7
:100C7000A0E0B0E0309719F14081518102811381E9
:100C800048175907C8F08417950769F4109731F091
:100C900012960C93129713961C9327C000935A0236
:100CA00010935B0222C02115310519F0421753073A
:100CB00018F49A01BD01EF01DF01F801DBCF211526
:100CC0003105F9F0281B390B2430310580F48A8175
:100CD0009B816115710521F0FB019383828304C020
:100CE00090935B0280935A02FE01329644C0FE014B
:100CF000E20FF31F819391932250310939832883A6
:100D00003AC02091580230915902232B41F420918E
:100D1000020230910302309359022093580220912D
:100D20000002309101022115310541F42DB73EB783
:100D30004091040250910502241B350BE0915802AA
:100D4000F0915902E217F307A0F42E1B3F0B28176E
:100D5000390778F0AC014E5F5F4F2417350748F034
:100D60004E0F5F1F50935902409358028193919305
:100D700002C0E0E0F0E0CF01DF91CF911F910F9131
:100D80000895CF93DF93009709F481C0FC01329757
:100D900013821282A0915A02B0915B02109781F4E3
:100DA00020813181820F931F209158023091590286
:100DB0002817390751F5F0935902E093580267C09C
:100DC000ED0120E030E0CE17DF0740F44A815B817F
:100DD0009E0141155105F1F0EA01F5CFD383C2839D
:100DE00040815181840F951FC817D90759F4888114
:100DF0009981840F951F0296918380838A819B81BC
:100E0000938382832115310529F4F0935B02E093EB
:100E10005A023DC0E901FB83EA8349915991C40F0D
:100E2000D51FEC17FD0761F480819181840F951F18
:100E30000296E90199838883828193819B838A83C7
:100E4000E0E0F0E012968D919C911397009719F0D5
:100E5000FD01DC01F7CF8D919C9111979D012E5FD3
:100E60003F4F820F931F209158023091590228174B
:100E7000390769F4309729F410925B0210925A02F4
:100E800002C013821282B0935902A0935802DF91DC
:080E9000CF910895F894FFCF03
:100E980000005C022000484F4D494E472E2E00416D
:100EA80043544956450050415553454400414C551B
:100EB8004D494E554D00535445454C0057484954EB
:100EC8004500424C41434B004241444953520000C3
:00000001FF
